{
  "_format": "hh-sol-artifact-1",
  "contractName": "TokenSale",
  "sourceName": "contracts/TokenSale.sol",
  "abi": [
    {
      "inputs": [
        {
          "internalType": "address",
          "name": "_tokenAddress",
          "type": "address"
        },
        {
          "internalType": "uint256",
          "name": "_buyPrice",
          "type": "uint256"
        },
        {
          "internalType": "uint256",
          "name": "_sellPrice",
          "type": "uint256"
        }
      ],
      "stateMutability": "nonpayable",
      "type": "constructor"
    },
    {
      "inputs": [],
      "name": "MaxSupplyReached",
      "type": "error"
    },
    {
      "inputs": [
        {
          "internalType": "address",
          "name": "owner",
          "type": "address"
        }
      ],
      "name": "OwnableInvalidOwner",
      "type": "error"
    },
    {
      "inputs": [
        {
          "internalType": "address",
          "name": "account",
          "type": "address"
        }
      ],
      "name": "OwnableUnauthorizedAccount",
      "type": "error"
    },
    {
      "inputs": [],
      "name": "ReentrancyGuardReentrantCall",
      "type": "error"
    },
    {
      "inputs": [],
      "name": "ZeroAmount",
      "type": "error"
    },
    {
      "anonymous": false,
      "inputs": [
        {
          "indexed": true,
          "internalType": "address",
          "name": "buyer",
          "type": "address"
        },
        {
          "indexed": false,
          "internalType": "uint256",
          "name": "tokensBought",
          "type": "uint256"
        }
      ],
      "name": "BuyTokens",
      "type": "event"
    },
    {
      "anonymous": false,
      "inputs": [
        {
          "indexed": true,
          "internalType": "address",
          "name": "previousOwner",
          "type": "address"
        },
        {
          "indexed": true,
          "internalType": "address",
          "name": "newOwner",
          "type": "address"
        }
      ],
      "name": "OwnershipTransferStarted",
      "type": "event"
    },
    {
      "anonymous": false,
      "inputs": [
        {
          "indexed": true,
          "internalType": "address",
          "name": "previousOwner",
          "type": "address"
        },
        {
          "indexed": true,
          "internalType": "address",
          "name": "newOwner",
          "type": "address"
        }
      ],
      "name": "OwnershipTransferred",
      "type": "event"
    },
    {
      "anonymous": false,
      "inputs": [
        {
          "indexed": true,
          "internalType": "address",
          "name": "seller",
          "type": "address"
        },
        {
          "indexed": false,
          "internalType": "uint256",
          "name": "tokensSold",
          "type": "uint256"
        }
      ],
      "name": "SellTokens",
      "type": "event"
    },
    {
      "anonymous": false,
      "inputs": [
        {
          "indexed": true,
          "internalType": "address",
          "name": "withdrawer",
          "type": "address"
        },
        {
          "indexed": false,
          "internalType": "uint256",
          "name": "amount",
          "type": "uint256"
        }
      ],
      "name": "WithdrawEth",
      "type": "event"
    },
    {
      "anonymous": false,
      "inputs": [
        {
          "indexed": true,
          "internalType": "address",
          "name": "withdrawer",
          "type": "address"
        },
        {
          "indexed": false,
          "internalType": "uint256",
          "name": "amount",
          "type": "uint256"
        }
      ],
      "name": "WithdrawTokens",
      "type": "event"
    },
    {
      "stateMutability": "payable",
      "type": "fallback"
    },
    {
      "inputs": [],
      "name": "acceptOwnership",
      "outputs": [],
      "stateMutability": "nonpayable",
      "type": "function"
    },
    {
      "inputs": [],
      "name": "buyPrice",
      "outputs": [
        {
          "internalType": "uint256",
          "name": "",
          "type": "uint256"
        }
      ],
      "stateMutability": "view",
      "type": "function"
    },
    {
      "inputs": [],
      "name": "buyTokens",
      "outputs": [],
      "stateMutability": "payable",
      "type": "function"
    },
    {
      "inputs": [],
      "name": "owner",
      "outputs": [
        {
          "internalType": "address",
          "name": "",
          "type": "address"
        }
      ],
      "stateMutability": "view",
      "type": "function"
    },
    {
      "inputs": [],
      "name": "pendingOwner",
      "outputs": [
        {
          "internalType": "address",
          "name": "",
          "type": "address"
        }
      ],
      "stateMutability": "view",
      "type": "function"
    },
    {
      "inputs": [],
      "name": "renounceOwnership",
      "outputs": [],
      "stateMutability": "nonpayable",
      "type": "function"
    },
    {
      "inputs": [],
      "name": "sellPrice",
      "outputs": [
        {
          "internalType": "uint256",
          "name": "",
          "type": "uint256"
        }
      ],
      "stateMutability": "view",
      "type": "function"
    },
    {
      "inputs": [
        {
          "internalType": "uint256",
          "name": "_amount",
          "type": "uint256"
        }
      ],
      "name": "sellTokens",
      "outputs": [],
      "stateMutability": "nonpayable",
      "type": "function"
    },
    {
      "inputs": [],
      "name": "token",
      "outputs": [
        {
          "internalType": "contract IToken",
          "name": "",
          "type": "address"
        }
      ],
      "stateMutability": "view",
      "type": "function"
    },
    {
      "inputs": [
        {
          "internalType": "address",
          "name": "newOwner",
          "type": "address"
        }
      ],
      "name": "transferOwnership",
      "outputs": [],
      "stateMutability": "nonpayable",
      "type": "function"
    },
    {
      "inputs": [],
      "name": "withdrawEth",
      "outputs": [],
      "stateMutability": "nonpayable",
      "type": "function"
    },
    {
      "inputs": [
        {
          "internalType": "uint256",
          "name": "_amount",
          "type": "uint256"
        }
      ],
      "name": "withdrawTokens",
      "outputs": [],
      "stateMutability": "nonpayable",
      "type": "function"
    },
    {
      "stateMutability": "payable",
      "type": "receive"
    }
  ],
  "bytecode": "0x60e060405234801561001057600080fd5b50604051610f52380380610f5283398101604081905261002f916100e9565b338061005557604051631e4fbdf760e01b81526000600482015260240160405180910390fd5b61005e8161007d565b5060016002556001600160a01b0390921660805260a05260c05261012c565b600180546001600160a01b031916905561009681610099565b50565b600080546001600160a01b038381166001600160a01b0319831681178455604051919092169283917f8be0079c531659141344cd1fd0a4f28419497f9722a3daafe3b4186f6b6457e09190a35050565b6000806000606084860312156100fe57600080fd5b83516001600160a01b038116811461011557600080fd5b602085015160409095015190969495509392505050565b60805160a05160c051610db16101a16000396000818161013901526108640152600081816101ca01526102d501526000818161028b01528181610366015281816103fa01528181610477015281816104fa015281816105bf0152818161069c0152818161075501526109270152610db16000f3fe6080604052600436106100ab5760003560e01c80638da5cb5b116100645780638da5cb5b146101ec578063a0ef91df1461021e578063d0febe4c14610233578063e30c39781461023b578063f2fde38b14610259578063fc0c546a14610279576100ba565b8063315a095d146101075780634b750334146101275780636c11bcd31461016e578063715018a61461018e57806379ba5097146101a35780638620410b146101b8576100ba565b366100ba576100b86102ad565b005b60405162461bcd60e51b815260206004820152601860248201527f4469726563742063616c6c73206e6f7420616c6c6f776564000000000000000060448201526064015b60405180910390fd5b34801561011357600080fd5b506100b8610122366004610c58565b61065d565b34801561013357600080fd5b5061015b7f000000000000000000000000000000000000000000000000000000000000000081565b6040519081526020015b60405180910390f35b34801561017a57600080fd5b506100b8610189366004610c58565b61084c565b34801561019a57600080fd5b506100b8610a0e565b3480156101af57600080fd5b506100b8610a22565b3480156101c457600080fd5b5061015b7f000000000000000000000000000000000000000000000000000000000000000081565b3480156101f857600080fd5b506000546001600160a01b03165b6040516001600160a01b039091168152602001610165565b34801561022a57600080fd5b506100b8610a63565b6100b86102ad565b34801561024757600080fd5b506001546001600160a01b0316610206565b34801561026557600080fd5b506100b8610274366004610c71565b610b2e565b34801561028557600080fd5b506102067f000000000000000000000000000000000000000000000000000000000000000081565b346000036102ce57604051631f2a200560e01b815260040160405180910390fd5b60006102fa7f000000000000000000000000000000000000000000000000000000000000000034610cb7565b61030c90670de0b6b3a7640000610cd9565b90508060000361032f57604051631f2a200560e01b815260040160405180910390fd5b6000811161034f5760405162461bcd60e51b81526004016100fe90610cf6565b6040516370a0823160e01b815230600482015281907f00000000000000000000000000000000000000000000000000000000000000006001600160a01b0316906370a0823190602401602060405180830381865afa1580156103b5573d6000803e3d6000fd5b505050506040513d601f19601f820116820180604052508101906103d99190610d2d565b106104755760405163a9059cbb60e01b8152336004820152602481018290527f00000000000000000000000000000000000000000000000000000000000000006001600160a01b03169063a9059cbb906044016020604051808303816000875af115801561044b573d6000803e3d6000fd5b505050506040513d601f19601f8201168201806040525081019061046f9190610d46565b50610624565b7f00000000000000000000000000000000000000000000000000000000000000006001600160a01b03166332cb6b0c6040518163ffffffff1660e01b8152600401602060405180830381865afa1580156104d3573d6000803e3d6000fd5b505050506040513d601f19601f820116820180604052508101906104f79190610d2d565b817f00000000000000000000000000000000000000000000000000000000000000006001600160a01b03166318160ddd6040518163ffffffff1660e01b8152600401602060405180830381865afa158015610556573d6000803e3d6000fd5b505050506040513d601f19601f8201168201806040525081019061057a9190610d2d565b6105849190610d68565b11156105a35760405163d05cb60960e01b815260040160405180910390fd5b6040516340c10f1960e01b8152336004820152602481018290527f00000000000000000000000000000000000000000000000000000000000000006001600160a01b0316906340c10f1990604401600060405180830381600087803b15801561060b57600080fd5b505af115801561061f573d6000803e3d6000fd5b505050505b60405181815233907f4aff2c4e63da20aaa26764b3e97f557bf5e95b76ddba8f97a156abbecb081846906020015b60405180910390a250565b610665610b9f565b600081116106855760405162461bcd60e51b81526004016100fe90610cf6565b6040516370a0823160e01b815230600482015281907f00000000000000000000000000000000000000000000000000000000000000006001600160a01b0316906370a0823190602401602060405180830381865afa1580156106eb573d6000803e3d6000fd5b505050506040513d601f19601f8201168201806040525081019061070f9190610d2d565b10156107535760405162461bcd60e51b8152602060048201526013602482015272496e73756666696369656e7420746f6b656e7360681b60448201526064016100fe565b7f00000000000000000000000000000000000000000000000000000000000000006001600160a01b031663a9059cbb6107946000546001600160a01b031690565b6040516001600160e01b031960e084901b1681526001600160a01b039091166004820152602481018490526044016020604051808303816000875af11580156107e1573d6000803e3d6000fd5b505050506040513d601f19601f820116820180604052508101906108059190610d46565b506000546001600160a01b03166001600160a01b03167f680f2e4f4032ebf1774e8cdbaddcb1b617a5a606411c8ca96257ada338d3833c8260405161065291815260200190565b610854610bcc565b6000670de0b6b3a76400006108897f000000000000000000000000000000000000000000000000000000000000000084610cd9565b6108939190610cb7565b9050804710156108e55760405162461bcd60e51b815260206004820152601860248201527f496e73756666696369656e74204554482062616c616e6365000000000000000060448201526064016100fe565b600082116109055760405162461bcd60e51b81526004016100fe90610cf6565b6040516323b872dd60e01b8152336004820152306024820152604481018390527f00000000000000000000000000000000000000000000000000000000000000006001600160a01b0316906323b872dd906064016020604051808303816000875af1158015610978573d6000803e3d6000fd5b505050506040513d601f19601f8201168201806040525081019061099c9190610d46565b50604051339082156108fc029083906000818181858888f193505050501580156109ca573d6000803e3d6000fd5b5060405182815233907f4f0a05c98d5132dc12d8adee36e2453f1d5bcfd87ae6c465e0d99e5fc8a3a0ba9060200160405180910390a250610a0b6001600255565b50565b610a16610b9f565b610a206000610bf4565b565b60015433906001600160a01b03168114610a5a5760405163118cdaa760e01b81526001600160a01b03821660048201526024016100fe565b610a0b81610bf4565b610a6b610b9f565b4780610aae5760405162461bcd60e51b81526020600482015260126024820152714e6f2045544820746f20776974686472617760701b60448201526064016100fe565b600080546040516001600160a01b039091169183156108fc02918491818181858888f19350505050158015610ae7573d6000803e3d6000fd5b506000546001600160a01b03166001600160a01b03167fccbd99ba6da8f29b2a4f65e474e3c3973564d356c162c08d45f3dc7f0cb5b3aa8260405161065291815260200190565b610b36610b9f565b600180546001600160a01b0383166001600160a01b03199091168117909155610b676000546001600160a01b031690565b6001600160a01b03167f38d16b8cac22d99fc7c124b9cd0de2d3fa1faef420bfe791d8c362d765e2270060405160405180910390a350565b6000546001600160a01b03163314610a205760405163118cdaa760e01b81523360048201526024016100fe565b6002805403610bee57604051633ee5aeb560e01b815260040160405180910390fd5b60028055565b600180546001600160a01b0319169055610a0b81600080546001600160a01b038381166001600160a01b0319831681178455604051919092169283917f8be0079c531659141344cd1fd0a4f28419497f9722a3daafe3b4186f6b6457e09190a35050565b600060208284031215610c6a57600080fd5b5035919050565b600060208284031215610c8357600080fd5b81356001600160a01b0381168114610c9a57600080fd5b9392505050565b634e487b7160e01b600052601160045260246000fd5b600082610cd457634e487b7160e01b600052601260045260246000fd5b500490565b8082028115828204841417610cf057610cf0610ca1565b92915050565b6020808252601d908201527f416d6f756e74206d757374206265206d6f7265207468616e207a65726f000000604082015260600190565b600060208284031215610d3f57600080fd5b5051919050565b600060208284031215610d5857600080fd5b81518015158114610c9a57600080fd5b80820180821115610cf057610cf0610ca156fea2646970667358221220bfece8e13ca5d55efa75bbc434e13525b3cfb8bc987db3f92a1c9a7e6a89f40a64736f6c63430008140033",
  "linkReferences": {},
  "deployedLinkReferences": {}
}