{
  "_format": "hh-sol-artifact-1",
  "contractName": "Token",
  "sourceName": "contracts/ERC20Token.sol",
  "abi": [
    {
      "inputs": [
        {
          "internalType": "string",
          "name": "name",
          "type": "string"
        },
        {
          "internalType": "string",
          "name": "symbol",
          "type": "string"
        },
        {
          "internalType": "uint256",
          "name": "maxSupply",
          "type": "uint256"
        },
        {
          "internalType": "address",
          "name": "initalMinter",
          "type": "address"
        },
        {
          "internalType": "address",
          "name": "initialDefaultAdmin",
          "type": "address"
        },
        {
          "internalType": "uint48",
          "name": "initialDelay",
          "type": "uint48"
        }
      ],
      "stateMutability": "nonpayable",
      "type": "constructor"
    },
    {
      "inputs": [],
      "name": "AccessControlBadConfirmation",
      "type": "error"
    },
    {
      "inputs": [
        {
          "internalType": "uint48",
          "name": "schedule",
          "type": "uint48"
        }
      ],
      "name": "AccessControlEnforcedDefaultAdminDelay",
      "type": "error"
    },
    {
      "inputs": [],
      "name": "AccessControlEnforcedDefaultAdminRules",
      "type": "error"
    },
    {
      "inputs": [
        {
          "internalType": "address",
          "name": "defaultAdmin",
          "type": "address"
        }
      ],
      "name": "AccessControlInvalidDefaultAdmin",
      "type": "error"
    },
    {
      "inputs": [
        {
          "internalType": "address",
          "name": "account",
          "type": "address"
        },
        {
          "internalType": "bytes32",
          "name": "neededRole",
          "type": "bytes32"
        }
      ],
      "name": "AccessControlUnauthorizedAccount",
      "type": "error"
    },
    {
      "inputs": [
        {
          "internalType": "address",
          "name": "spender",
          "type": "address"
        },
        {
          "internalType": "uint256",
          "name": "allowance",
          "type": "uint256"
        },
        {
          "internalType": "uint256",
          "name": "needed",
          "type": "uint256"
        }
      ],
      "name": "ERC20InsufficientAllowance",
      "type": "error"
    },
    {
      "inputs": [
        {
          "internalType": "address",
          "name": "sender",
          "type": "address"
        },
        {
          "internalType": "uint256",
          "name": "balance",
          "type": "uint256"
        },
        {
          "internalType": "uint256",
          "name": "needed",
          "type": "uint256"
        }
      ],
      "name": "ERC20InsufficientBalance",
      "type": "error"
    },
    {
      "inputs": [
        {
          "internalType": "address",
          "name": "approver",
          "type": "address"
        }
      ],
      "name": "ERC20InvalidApprover",
      "type": "error"
    },
    {
      "inputs": [
        {
          "internalType": "address",
          "name": "receiver",
          "type": "address"
        }
      ],
      "name": "ERC20InvalidReceiver",
      "type": "error"
    },
    {
      "inputs": [
        {
          "internalType": "address",
          "name": "sender",
          "type": "address"
        }
      ],
      "name": "ERC20InvalidSender",
      "type": "error"
    },
    {
      "inputs": [
        {
          "internalType": "address",
          "name": "spender",
          "type": "address"
        }
      ],
      "name": "ERC20InvalidSpender",
      "type": "error"
    },
    {
      "inputs": [],
      "name": "EnforcedPause",
      "type": "error"
    },
    {
      "inputs": [],
      "name": "ExpectedPause",
      "type": "error"
    },
    {
      "inputs": [],
      "name": "MaxSupplyReached",
      "type": "error"
    },
    {
      "inputs": [
        {
          "internalType": "uint8",
          "name": "bits",
          "type": "uint8"
        },
        {
          "internalType": "uint256",
          "name": "value",
          "type": "uint256"
        }
      ],
      "name": "SafeCastOverflowedUintDowncast",
      "type": "error"
    },
    {
      "inputs": [],
      "name": "ZeroAddress",
      "type": "error"
    },
    {
      "anonymous": false,
      "inputs": [
        {
          "indexed": true,
          "internalType": "address",
          "name": "owner",
          "type": "address"
        },
        {
          "indexed": true,
          "internalType": "address",
          "name": "spender",
          "type": "address"
        },
        {
          "indexed": false,
          "internalType": "uint256",
          "name": "value",
          "type": "uint256"
        }
      ],
      "name": "Approval",
      "type": "event"
    },
    {
      "anonymous": false,
      "inputs": [],
      "name": "DefaultAdminDelayChangeCanceled",
      "type": "event"
    },
    {
      "anonymous": false,
      "inputs": [
        {
          "indexed": false,
          "internalType": "uint48",
          "name": "newDelay",
          "type": "uint48"
        },
        {
          "indexed": false,
          "internalType": "uint48",
          "name": "effectSchedule",
          "type": "uint48"
        }
      ],
      "name": "DefaultAdminDelayChangeScheduled",
      "type": "event"
    },
    {
      "anonymous": false,
      "inputs": [],
      "name": "DefaultAdminTransferCanceled",
      "type": "event"
    },
    {
      "anonymous": false,
      "inputs": [
        {
          "indexed": true,
          "internalType": "address",
          "name": "newAdmin",
          "type": "address"
        },
        {
          "indexed": false,
          "internalType": "uint48",
          "name": "acceptSchedule",
          "type": "uint48"
        }
      ],
      "name": "DefaultAdminTransferScheduled",
      "type": "event"
    },
    {
      "anonymous": false,
      "inputs": [
        {
          "indexed": false,
          "internalType": "address",
          "name": "account",
          "type": "address"
        }
      ],
      "name": "Paused",
      "type": "event"
    },
    {
      "anonymous": false,
      "inputs": [
        {
          "indexed": true,
          "internalType": "bytes32",
          "name": "role",
          "type": "bytes32"
        },
        {
          "indexed": true,
          "internalType": "bytes32",
          "name": "previousAdminRole",
          "type": "bytes32"
        },
        {
          "indexed": true,
          "internalType": "bytes32",
          "name": "newAdminRole",
          "type": "bytes32"
        }
      ],
      "name": "RoleAdminChanged",
      "type": "event"
    },
    {
      "anonymous": false,
      "inputs": [
        {
          "indexed": true,
          "internalType": "bytes32",
          "name": "role",
          "type": "bytes32"
        },
        {
          "indexed": true,
          "internalType": "address",
          "name": "account",
          "type": "address"
        },
        {
          "indexed": true,
          "internalType": "address",
          "name": "sender",
          "type": "address"
        }
      ],
      "name": "RoleGranted",
      "type": "event"
    },
    {
      "anonymous": false,
      "inputs": [
        {
          "indexed": true,
          "internalType": "bytes32",
          "name": "role",
          "type": "bytes32"
        },
        {
          "indexed": true,
          "internalType": "address",
          "name": "account",
          "type": "address"
        },
        {
          "indexed": true,
          "internalType": "address",
          "name": "sender",
          "type": "address"
        }
      ],
      "name": "RoleRevoked",
      "type": "event"
    },
    {
      "anonymous": false,
      "inputs": [
        {
          "indexed": true,
          "internalType": "address",
          "name": "from",
          "type": "address"
        },
        {
          "indexed": true,
          "internalType": "address",
          "name": "to",
          "type": "address"
        },
        {
          "indexed": false,
          "internalType": "uint256",
          "name": "value",
          "type": "uint256"
        }
      ],
      "name": "Transfer",
      "type": "event"
    },
    {
      "anonymous": false,
      "inputs": [
        {
          "indexed": false,
          "internalType": "address",
          "name": "account",
          "type": "address"
        }
      ],
      "name": "Unpaused",
      "type": "event"
    },
    {
      "inputs": [],
      "name": "DEFAULT_ADMIN_ROLE",
      "outputs": [
        {
          "internalType": "bytes32",
          "name": "",
          "type": "bytes32"
        }
      ],
      "stateMutability": "view",
      "type": "function"
    },
    {
      "inputs": [],
      "name": "MAX_SUPPLY",
      "outputs": [
        {
          "internalType": "uint256",
          "name": "",
          "type": "uint256"
        }
      ],
      "stateMutability": "view",
      "type": "function"
    },
    {
      "inputs": [],
      "name": "MINTER_ROLE",
      "outputs": [
        {
          "internalType": "bytes32",
          "name": "",
          "type": "bytes32"
        }
      ],
      "stateMutability": "view",
      "type": "function"
    },
    {
      "inputs": [],
      "name": "PAUSER_ROLE",
      "outputs": [
        {
          "internalType": "bytes32",
          "name": "",
          "type": "bytes32"
        }
      ],
      "stateMutability": "view",
      "type": "function"
    },
    {
      "inputs": [],
      "name": "acceptDefaultAdminTransfer",
      "outputs": [],
      "stateMutability": "nonpayable",
      "type": "function"
    },
    {
      "inputs": [
        {
          "internalType": "address",
          "name": "owner",
          "type": "address"
        },
        {
          "internalType": "address",
          "name": "spender",
          "type": "address"
        }
      ],
      "name": "allowance",
      "outputs": [
        {
          "internalType": "uint256",
          "name": "",
          "type": "uint256"
        }
      ],
      "stateMutability": "view",
      "type": "function"
    },
    {
      "inputs": [
        {
          "internalType": "address",
          "name": "spender",
          "type": "address"
        },
        {
          "internalType": "uint256",
          "name": "value",
          "type": "uint256"
        }
      ],
      "name": "approve",
      "outputs": [
        {
          "internalType": "bool",
          "name": "",
          "type": "bool"
        }
      ],
      "stateMutability": "nonpayable",
      "type": "function"
    },
    {
      "inputs": [
        {
          "internalType": "address",
          "name": "account",
          "type": "address"
        }
      ],
      "name": "balanceOf",
      "outputs": [
        {
          "internalType": "uint256",
          "name": "",
          "type": "uint256"
        }
      ],
      "stateMutability": "view",
      "type": "function"
    },
    {
      "inputs": [
        {
          "internalType": "address",
          "name": "newAdmin",
          "type": "address"
        }
      ],
      "name": "beginDefaultAdminTransfer",
      "outputs": [],
      "stateMutability": "nonpayable",
      "type": "function"
    },
    {
      "inputs": [],
      "name": "cancelDefaultAdminTransfer",
      "outputs": [],
      "stateMutability": "nonpayable",
      "type": "function"
    },
    {
      "inputs": [
        {
          "internalType": "uint48",
          "name": "newDelay",
          "type": "uint48"
        }
      ],
      "name": "changeDefaultAdminDelay",
      "outputs": [],
      "stateMutability": "nonpayable",
      "type": "function"
    },
    {
      "inputs": [],
      "name": "decimals",
      "outputs": [
        {
          "internalType": "uint8",
          "name": "",
          "type": "uint8"
        }
      ],
      "stateMutability": "view",
      "type": "function"
    },
    {
      "inputs": [],
      "name": "defaultAdmin",
      "outputs": [
        {
          "internalType": "address",
          "name": "",
          "type": "address"
        }
      ],
      "stateMutability": "view",
      "type": "function"
    },
    {
      "inputs": [],
      "name": "defaultAdminDelay",
      "outputs": [
        {
          "internalType": "uint48",
          "name": "",
          "type": "uint48"
        }
      ],
      "stateMutability": "view",
      "type": "function"
    },
    {
      "inputs": [],
      "name": "defaultAdminDelayIncreaseWait",
      "outputs": [
        {
          "internalType": "uint48",
          "name": "",
          "type": "uint48"
        }
      ],
      "stateMutability": "view",
      "type": "function"
    },
    {
      "inputs": [
        {
          "internalType": "bytes32",
          "name": "role",
          "type": "bytes32"
        }
      ],
      "name": "getRoleAdmin",
      "outputs": [
        {
          "internalType": "bytes32",
          "name": "",
          "type": "bytes32"
        }
      ],
      "stateMutability": "view",
      "type": "function"
    },
    {
      "inputs": [
        {
          "internalType": "bytes32",
          "name": "role",
          "type": "bytes32"
        },
        {
          "internalType": "address",
          "name": "account",
          "type": "address"
        }
      ],
      "name": "grantRole",
      "outputs": [],
      "stateMutability": "nonpayable",
      "type": "function"
    },
    {
      "inputs": [
        {
          "internalType": "bytes32",
          "name": "role",
          "type": "bytes32"
        },
        {
          "internalType": "address",
          "name": "account",
          "type": "address"
        }
      ],
      "name": "hasRole",
      "outputs": [
        {
          "internalType": "bool",
          "name": "",
          "type": "bool"
        }
      ],
      "stateMutability": "view",
      "type": "function"
    },
    {
      "inputs": [
        {
          "internalType": "address",
          "name": "to",
          "type": "address"
        },
        {
          "internalType": "uint256",
          "name": "amount",
          "type": "uint256"
        }
      ],
      "name": "mint",
      "outputs": [],
      "stateMutability": "nonpayable",
      "type": "function"
    },
    {
      "inputs": [],
      "name": "name",
      "outputs": [
        {
          "internalType": "string",
          "name": "",
          "type": "string"
        }
      ],
      "stateMutability": "view",
      "type": "function"
    },
    {
      "inputs": [],
      "name": "owner",
      "outputs": [
        {
          "internalType": "address",
          "name": "",
          "type": "address"
        }
      ],
      "stateMutability": "view",
      "type": "function"
    },
    {
      "inputs": [],
      "name": "pause",
      "outputs": [],
      "stateMutability": "nonpayable",
      "type": "function"
    },
    {
      "inputs": [],
      "name": "paused",
      "outputs": [
        {
          "internalType": "bool",
          "name": "",
          "type": "bool"
        }
      ],
      "stateMutability": "view",
      "type": "function"
    },
    {
      "inputs": [],
      "name": "pendingDefaultAdmin",
      "outputs": [
        {
          "internalType": "address",
          "name": "newAdmin",
          "type": "address"
        },
        {
          "internalType": "uint48",
          "name": "schedule",
          "type": "uint48"
        }
      ],
      "stateMutability": "view",
      "type": "function"
    },
    {
      "inputs": [],
      "name": "pendingDefaultAdminDelay",
      "outputs": [
        {
          "internalType": "uint48",
          "name": "newDelay",
          "type": "uint48"
        },
        {
          "internalType": "uint48",
          "name": "schedule",
          "type": "uint48"
        }
      ],
      "stateMutability": "view",
      "type": "function"
    },
    {
      "inputs": [
        {
          "internalType": "bytes32",
          "name": "role",
          "type": "bytes32"
        },
        {
          "internalType": "address",
          "name": "account",
          "type": "address"
        }
      ],
      "name": "renounceRole",
      "outputs": [],
      "stateMutability": "nonpayable",
      "type": "function"
    },
    {
      "inputs": [
        {
          "internalType": "bytes32",
          "name": "role",
          "type": "bytes32"
        },
        {
          "internalType": "address",
          "name": "account",
          "type": "address"
        }
      ],
      "name": "revokeRole",
      "outputs": [],
      "stateMutability": "nonpayable",
      "type": "function"
    },
    {
      "inputs": [],
      "name": "rollbackDefaultAdminDelay",
      "outputs": [],
      "stateMutability": "nonpayable",
      "type": "function"
    },
    {
      "inputs": [
        {
          "internalType": "bytes4",
          "name": "interfaceId",
          "type": "bytes4"
        }
      ],
      "name": "supportsInterface",
      "outputs": [
        {
          "internalType": "bool",
          "name": "",
          "type": "bool"
        }
      ],
      "stateMutability": "view",
      "type": "function"
    },
    {
      "inputs": [],
      "name": "symbol",
      "outputs": [
        {
          "internalType": "string",
          "name": "",
          "type": "string"
        }
      ],
      "stateMutability": "view",
      "type": "function"
    },
    {
      "inputs": [],
      "name": "testPausable",
      "outputs": [
        {
          "internalType": "bool",
          "name": "",
          "type": "bool"
        }
      ],
      "stateMutability": "view",
      "type": "function"
    },
    {
      "inputs": [],
      "name": "totalSupply",
      "outputs": [
        {
          "internalType": "uint256",
          "name": "",
          "type": "uint256"
        }
      ],
      "stateMutability": "view",
      "type": "function"
    },
    {
      "inputs": [
        {
          "internalType": "address",
          "name": "to",
          "type": "address"
        },
        {
          "internalType": "uint256",
          "name": "value",
          "type": "uint256"
        }
      ],
      "name": "transfer",
      "outputs": [
        {
          "internalType": "bool",
          "name": "",
          "type": "bool"
        }
      ],
      "stateMutability": "nonpayable",
      "type": "function"
    },
    {
      "inputs": [
        {
          "internalType": "address",
          "name": "from",
          "type": "address"
        },
        {
          "internalType": "address",
          "name": "to",
          "type": "address"
        },
        {
          "internalType": "uint256",
          "name": "value",
          "type": "uint256"
        }
      ],
      "name": "transferFrom",
      "outputs": [
        {
          "internalType": "bool",
          "name": "",
          "type": "bool"
        }
      ],
      "stateMutability": "nonpayable",
      "type": "function"
    },
    {
      "inputs": [],
      "name": "unpause",
      "outputs": [],
      "stateMutability": "nonpayable",
      "type": "function"
    }
  ],
  "bytecode": "0x60a06040523480156200001157600080fd5b5060405162001e8e38038062001e8e833981016040819052620000349162000513565b80828787600362000046838262000659565b50600462000055828262000659565b5050506001600160a01b0381166200008857604051636116401160e11b8152600060048201526024015b60405180910390fd5b600680546001600160d01b0316600160d01b65ffffffffffff851602179055620000b460008262000138565b5050506080849052620000e87f9f2df0fed2c77648de5860a4cc508cd0818c85b8b8a1ab4ceeef8d981c8956a68462000138565b50620001157f65d7a28e3265b37a6474929f336521b332c1681b933f6cb9f3376673440d862a8462000138565b506200012c8369021e19e0c9bab2400000620001ae565b50505050505062000747565b60008262000199576000620001556007546001600160a01b031690565b6001600160a01b0316146200017d57604051631fe1e13d60e11b815260040160405180910390fd5b600780546001600160a01b0319166001600160a01b0384161790555b620001a58383620001ec565b90505b92915050565b6001600160a01b038216620001da5760405163ec442f0560e01b8152600060048201526024016200007f565b620001e8600083836200029e565b5050565b60008281526005602090815260408083206001600160a01b038516845290915281205460ff16620002955760008381526005602090815260408083206001600160a01b03861684529091529020805460ff191660011790556200024c3390565b6001600160a01b0316826001600160a01b0316847f2f8788117e7eff1d82e926ec794901d17c78024a50270940304540a733656f0d60405160405180910390a4506001620001a8565b506000620001a8565b6001600160a01b038316158015620002cd575060805181620002bf60025490565b620002cb919062000725565b115b15620002ec5760405163d05cb60960e01b815260040160405180910390fd5b620002f9838383620002fe565b505050565b6001600160a01b0383166200032d57806002600082825462000321919062000725565b90915550620003a19050565b6001600160a01b03831660009081526020819052604090205481811015620003825760405163391434e360e21b81526001600160a01b038516600482015260248101829052604481018390526064016200007f565b6001600160a01b03841660009081526020819052604090209082900390555b6001600160a01b038216620003bf57600280548290039055620003de565b6001600160a01b03821660009081526020819052604090208054820190555b816001600160a01b0316836001600160a01b03167fddf252ad1be2c89b69c2b068fc378daa952ba7f163c4a11628f55a4df523b3ef836040516200042491815260200190565b60405180910390a3505050565b634e487b7160e01b600052604160045260246000fd5b600082601f8301126200045957600080fd5b81516001600160401b038082111562000476576200047662000431565b604051601f8301601f19908116603f01168101908282118183101715620004a157620004a162000431565b81604052838152602092508683858801011115620004be57600080fd5b600091505b83821015620004e25785820183015181830184015290820190620004c3565b600093810190920192909252949350505050565b80516001600160a01b03811681146200050e57600080fd5b919050565b60008060008060008060c087890312156200052d57600080fd5b86516001600160401b03808211156200054557600080fd5b620005538a838b0162000447565b975060208901519150808211156200056a57600080fd5b506200057989828a0162000447565b955050604087015193506200059160608801620004f6565b9250620005a160808801620004f6565b915060a087015165ffffffffffff81168114620005bd57600080fd5b809150509295509295509295565b600181811c90821680620005e057607f821691505b6020821081036200060157634e487b7160e01b600052602260045260246000fd5b50919050565b601f821115620002f957600081815260208120601f850160051c81016020861015620006305750805b601f850160051c820191505b8181101562000651578281556001016200063c565b505050505050565b81516001600160401b0381111562000675576200067562000431565b6200068d81620006868454620005cb565b8462000607565b602080601f831160018114620006c55760008415620006ac5750858301515b600019600386901b1c1916600185901b17855562000651565b600085815260208120601f198616915b82811015620006f657888601518255948401946001909101908401620006d5565b5085821015620007155787850151600019600388901b60f8161c191681555b5050505050600190811b01905550565b80820180821115620001a857634e487b7160e01b600052601160045260246000fd5b6080516117246200076a600039600081816102fb015261110801526117246000f3fe608060405234801561001057600080fd5b50600436106102115760003560e01c806370a0823111610125578063a9059cbb116100ad578063d53913931161007c578063d53913931461047d578063d547741f146104a4578063d602b9fd146104b7578063dd62ed3e146104bf578063e63ab1e9146104f857600080fd5b8063a9059cbb1461042c578063cc8463c81461043f578063cefc142914610447578063cf6eefb71461044f57600080fd5b806391d14854116100f457806391d14854146103da57806395d89b41146103ed578063a1eda53c146103f5578063a217fddf1461041c578063a4980b071461042457600080fd5b806370a082311461037c5780638456cb59146103a557806384ef8ffc146103ad5780638da5cb5b146103d257600080fd5b80632f2ff15d116101a85780633f4ba83a116101775780633f4ba83a1461033057806340c10f19146103385780635c975abb1461034b578063634e93da14610356578063649a5ec71461036957600080fd5b80632f2ff15d146102d4578063313ce567146102e757806332cb6b0c146102f657806336568abe1461031d57600080fd5b80630aa6220b116101e45780630aa6220b1461028257806318160ddd1461028c57806323b872dd1461029e578063248a9ca3146102b157600080fd5b806301ffc9a714610216578063022d63fb1461023e57806306fdde031461025a578063095ea7b31461026f575b600080fd5b61022961022436600461149a565b61051f565b60405190151581526020015b60405180910390f35b620697805b60405165ffffffffffff9091168152602001610235565b61026261054a565b60405161023591906114c4565b61022961027d36600461152e565b6105dc565b61028a6105f4565b005b6002545b604051908152602001610235565b6102296102ac366004611558565b61060a565b6102906102bf366004611594565b60009081526005602052604090206001015490565b61028a6102e23660046115ad565b610627565b60405160128152602001610235565b6102907f000000000000000000000000000000000000000000000000000000000000000081565b61028a61032b3660046115ad565b610653565b61028a6106ff565b61028a61034636600461152e565b610731565b60085460ff16610229565b61028a6103643660046115d9565b6107e1565b61028a6103773660046115f4565b6107f5565b61029061038a3660046115d9565b6001600160a01b031660009081526020819052604090205490565b61028a610809565b6007546001600160a01b03165b6040516001600160a01b039091168152602001610235565b6103ba61083b565b6102296103e83660046115ad565b610854565b61026261087f565b6103fd61088e565b6040805165ffffffffffff938416815292909116602083015201610235565b610290600081565b6102296108e2565b61022961043a36600461152e565b6108f2565b61024361090d565b61028a61096c565b6104576109ac565b604080516001600160a01b03909316835265ffffffffffff909116602083015201610235565b6102907f9f2df0fed2c77648de5860a4cc508cd0818c85b8b8a1ab4ceeef8d981c8956a681565b61028a6104b23660046115ad565b6109cd565b61028a6109f5565b6102906104cd36600461161c565b6001600160a01b03918216600090815260016020908152604080832093909416825291909152205490565b6102907f65d7a28e3265b37a6474929f336521b332c1681b933f6cb9f3376673440d862a81565b60006001600160e01b031982166318a4c3c360e11b1480610544575061054482610a08565b92915050565b60606003805461055990611646565b80601f016020809104026020016040519081016040528092919081815260200182805461058590611646565b80156105d25780601f106105a7576101008083540402835291602001916105d2565b820191906000526020600020905b8154815290600101906020018083116105b557829003601f168201915b5050505050905090565b6000336105ea818585610a3d565b5060019392505050565b60006105ff81610a4a565b610607610a54565b50565b6000610614610a61565b61061f848484610a85565b949350505050565b8161064557604051631fe1e13d60e11b815260040160405180910390fd5b61064f8282610aa9565b5050565b8115801561066e57506007546001600160a01b038281169116145b156106f55760008061067e6109ac565b90925090506001600160a01b0382161515806106a0575065ffffffffffff8116155b806106b357504265ffffffffffff821610155b156106e0576040516319ca5ebb60e01b815265ffffffffffff821660048201526024015b60405180910390fd5b50506006805465ffffffffffff60a01b191690555b61064f8282610ad4565b7f65d7a28e3265b37a6474929f336521b332c1681b933f6cb9f3376673440d862a61072981610a4a565b610607610b07565b7f9f2df0fed2c77648de5860a4cc508cd0818c85b8b8a1ab4ceeef8d981c8956a661075b81610a4a565b600082116107ab5760405162461bcd60e51b815260206004820181905260248201527f416d6f756e74206d7573742062652067726561746572207468616e207a65726f60448201526064016106d7565b6001600160a01b0383166107d25760405163d92e233d60e01b815260040160405180910390fd5b6107dc8383610b59565b505050565b60006107ec81610a4a565b61064f82610b8f565b600061080081610a4a565b61064f82610c02565b7f65d7a28e3265b37a6474929f336521b332c1681b933f6cb9f3376673440d862a61083381610a4a565b610607610c72565b600061084f6007546001600160a01b031690565b905090565b60009182526005602090815260408084206001600160a01b0393909316845291905290205460ff1690565b60606004805461055990611646565b600754600090600160d01b900465ffffffffffff1680151580156108ba57504265ffffffffffff821610155b6108c6576000806108da565b600754600160a01b900465ffffffffffff16815b915091509091565b60006108ec610a61565b50600190565b60006108fc610a61565b6109068383610caf565b9392505050565b600754600090600160d01b900465ffffffffffff16801515801561093857504265ffffffffffff8216105b61095357600654600160d01b900465ffffffffffff16610966565b600754600160a01b900465ffffffffffff165b91505090565b60006109766109ac565b509050336001600160a01b038216146109a457604051636116401160e11b81523360048201526024016106d7565b610607610cbd565b6006546001600160a01b03811691600160a01b90910465ffffffffffff1690565b816109eb57604051631fe1e13d60e11b815260040160405180910390fd5b61064f8282610d56565b6000610a0081610a4a565b610607610d7b565b60006001600160e01b03198216637965db0b60e01b148061054457506301ffc9a760e01b6001600160e01b0319831614610544565b6107dc8383836001610d86565b6106078133610e5b565b610a5f600080610e94565b565b60085460ff1615610a5f5760405163d93c066560e01b815260040160405180910390fd5b600033610a93858285610f54565b610a9e858585610fcd565b506001949350505050565b600082815260056020526040902060010154610ac481610a4a565b610ace838361102c565b50505050565b6001600160a01b0381163314610afd5760405163334bd91960e11b815260040160405180910390fd5b6107dc8282611094565b610b0f6110d1565b6008805460ff191690557f5db9ee0a495bf2e6ff9c91a7834c1ba4fdd244a5e8aa4e537bd38aeae4b073aa335b6040516001600160a01b03909116815260200160405180910390a1565b6001600160a01b038216610b835760405163ec442f0560e01b8152600060048201526024016106d7565b61064f600083836110f4565b6000610b9961090d565b610ba242611166565b610bac9190611696565b9050610bb8828261119d565b60405165ffffffffffff821681526001600160a01b038316907f3377dc44241e779dd06afab5b788a35ca5f3b778836e2990bdb26a2a4b2e5ed69060200160405180910390a25050565b6000610c0d8261121c565b610c1642611166565b610c209190611696565b9050610c2c8282610e94565b6040805165ffffffffffff8085168252831660208201527ff1038c18cf84a56e432fdbfaf746924b7ea511dfe03a6506a0ceba4888788d9b910160405180910390a15050565b610c7a610a61565b6008805460ff191660011790557f62e78cea01bee320cd4e420270b5ea74000d11b0c9f74754ebdbfc544b05a258610b3c3390565b6000336105ea818585610fcd565b600080610cc86109ac565b91509150610cdd8165ffffffffffff16151590565b1580610cf157504265ffffffffffff821610155b15610d19576040516319ca5ebb60e01b815265ffffffffffff821660048201526024016106d7565b610d356000610d306007546001600160a01b031690565b611094565b50610d4160008361102c565b5050600680546001600160d01b031916905550565b600082815260056020526040902060010154610d7181610a4a565b610ace8383611094565b610a5f60008061119d565b6001600160a01b038416610db05760405163e602df0560e01b8152600060048201526024016106d7565b6001600160a01b038316610dda57604051634a1406b160e11b8152600060048201526024016106d7565b6001600160a01b0380851660009081526001602090815260408083209387168352929052208290558015610ace57826001600160a01b0316846001600160a01b03167f8c5be1e5ebec7d5bd14f71427d1e84f3dd0314c0f7b2291e5b200ac8c7c3b92584604051610e4d91815260200190565b60405180910390a350505050565b610e658282610854565b61064f5760405163e2517d3f60e01b81526001600160a01b0382166004820152602481018390526044016106d7565b600754600160d01b900465ffffffffffff168015610f17574265ffffffffffff82161015610eed57600754600680546001600160d01b0316600160a01b90920465ffffffffffff16600160d01b02919091179055610f17565b6040517f2b1fa2edafe6f7b9e97c1a9e0c3660e645beb2dcaa2d45bdbf9beaf5472e1ec590600090a15b50600780546001600160a01b0316600160a01b65ffffffffffff948516026001600160d01b031617600160d01b9290931691909102919091179055565b6001600160a01b03838116600090815260016020908152604080832093861683529290522054600019811015610ace5781811015610fbe57604051637dc7a0d960e11b81526001600160a01b038416600482015260248101829052604481018390526064016106d7565b610ace84848484036000610d86565b6001600160a01b038316610ff757604051634b637e8f60e11b8152600060048201526024016106d7565b6001600160a01b0382166110215760405163ec442f0560e01b8152600060048201526024016106d7565b6107dc8383836110f4565b60008261108a5760006110476007546001600160a01b031690565b6001600160a01b03161461106e57604051631fe1e13d60e11b815260040160405180910390fd5b600780546001600160a01b0319166001600160a01b0384161790555b610906838361126f565b6000821580156110b157506007546001600160a01b038381169116145b156110c757600780546001600160a01b03191690555b6109068383611303565b60085460ff16610a5f57604051638dfc202b60e01b815260040160405180910390fd5b6001600160a01b03831615801561113d57507f00000000000000000000000000000000000000000000000000000000000000008161113160025490565b61113b91906116bc565b115b1561115b5760405163d05cb60960e01b815260040160405180910390fd5b6107dc838383611370565b600065ffffffffffff821115611199576040516306dfcc6560e41b815260306004820152602481018390526044016106d7565b5090565b60006111a76109ac565b6006805465ffffffffffff8616600160a01b026001600160d01b03199091166001600160a01b0388161717905591506111e990508165ffffffffffff16151590565b156107dc576040517f8886ebfc4259abdbc16601dd8fb5678e54878f47b3c34836cfc51154a960510990600090a1505050565b60008061122761090d565b90508065ffffffffffff168365ffffffffffff161161124f5761124a83826116cf565b610906565b61090665ffffffffffff8416620697806000828218828410028218610906565b600061127b8383610854565b6112fb5760008381526005602090815260408083206001600160a01b03861684529091529020805460ff191660011790556112b33390565b6001600160a01b0316826001600160a01b0316847f2f8788117e7eff1d82e926ec794901d17c78024a50270940304540a733656f0d60405160405180910390a4506001610544565b506000610544565b600061130f8383610854565b156112fb5760008381526005602090815260408083206001600160a01b0386168085529252808320805460ff1916905551339286917ff6391f5c32d9c69d2a47ea670b442974b53935d1edc7fd64eb21e047a839171b9190a4506001610544565b6001600160a01b03831661139b57806002600082825461139091906116bc565b9091555061140d9050565b6001600160a01b038316600090815260208190526040902054818110156113ee5760405163391434e360e21b81526001600160a01b038516600482015260248101829052604481018390526064016106d7565b6001600160a01b03841660009081526020819052604090209082900390555b6001600160a01b03821661142957600280548290039055611448565b6001600160a01b03821660009081526020819052604090208054820190555b816001600160a01b0316836001600160a01b03167fddf252ad1be2c89b69c2b068fc378daa952ba7f163c4a11628f55a4df523b3ef8360405161148d91815260200190565b60405180910390a3505050565b6000602082840312156114ac57600080fd5b81356001600160e01b03198116811461090657600080fd5b600060208083528351808285015260005b818110156114f1578581018301518582016040015282016114d5565b506000604082860101526040601f19601f8301168501019250505092915050565b80356001600160a01b038116811461152957600080fd5b919050565b6000806040838503121561154157600080fd5b61154a83611512565b946020939093013593505050565b60008060006060848603121561156d57600080fd5b61157684611512565b925061158460208501611512565b9150604084013590509250925092565b6000602082840312156115a657600080fd5b5035919050565b600080604083850312156115c057600080fd5b823591506115d060208401611512565b90509250929050565b6000602082840312156115eb57600080fd5b61090682611512565b60006020828403121561160657600080fd5b813565ffffffffffff8116811461090657600080fd5b6000806040838503121561162f57600080fd5b61163883611512565b91506115d060208401611512565b600181811c9082168061165a57607f821691505b60208210810361167a57634e487b7160e01b600052602260045260246000fd5b50919050565b634e487b7160e01b600052601160045260246000fd5b65ffffffffffff8181168382160190808211156116b5576116b5611680565b5092915050565b8082018082111561054457610544611680565b65ffffffffffff8281168282160390808211156116b5576116b561168056fea2646970667358221220f8ba42c490688a9edacf0804ae8f50d0132e98b85c6451019f8135e5e208c79a64736f6c63430008140033",
  "linkReferences": {},
  "deployedLinkReferences": {}
}